{
  "contractName": "PlanetHorseNFT",
  "abi": [
    {
      "inputs": [
        {
          "internalType": "contract ERC20",
          "name": "paymentCurrency_",
          "type": "address"
        },
        {
          "internalType": "uint256",
          "name": "maxSupply_",
          "type": "uint256"
        },
        {
          "internalType": "uint256",
          "name": "maxMintAmount_",
          "type": "uint256"
        },
        {
          "internalType": "uint256",
          "name": "whitelistSaleTime_",
          "type": "uint256"
        },
        {
          "internalType": "uint256",
          "name": "publicSaleTime_",
          "type": "uint256"
        },
        {
          "internalType": "uint256",
          "name": "unlimitedSaleTime_",
          "type": "uint256"
        },
        {
          "internalType": "string",
          "name": "hiddenBaseURI_",
          "type": "string"
        },
        {
          "internalType": "bool",
          "name": "transfersPaused_",
          "type": "bool"
        }
      ],
      "stateMutability": "nonpayable",
      "type": "constructor"
    },
    {
      "anonymous": false,
      "inputs": [
        {
          "indexed": true,
          "internalType": "address",
          "name": "owner",
          "type": "address"
        },
        {
          "indexed": true,
          "internalType": "address",
          "name": "approved",
          "type": "address"
        },
        {
          "indexed": true,
          "internalType": "uint256",
          "name": "tokenId",
          "type": "uint256"
        }
      ],
      "name": "Approval",
      "type": "event"
    },
    {
      "anonymous": false,
      "inputs": [
        {
          "indexed": true,
          "internalType": "address",
          "name": "owner",
          "type": "address"
        },
        {
          "indexed": true,
          "internalType": "address",
          "name": "operator",
          "type": "address"
        },
        {
          "indexed": false,
          "internalType": "bool",
          "name": "approved",
          "type": "bool"
        }
      ],
      "name": "ApprovalForAll",
      "type": "event"
    },
    {
      "anonymous": false,
      "inputs": [
        {
          "indexed": true,
          "internalType": "address",
          "name": "previousOwner",
          "type": "address"
        },
        {
          "indexed": true,
          "internalType": "address",
          "name": "newOwner",
          "type": "address"
        }
      ],
      "name": "OwnershipTransferred",
      "type": "event"
    },
    {
      "anonymous": false,
      "inputs": [
        {
          "indexed": false,
          "internalType": "address",
          "name": "account",
          "type": "address"
        }
      ],
      "name": "Paused",
      "type": "event"
    },
    {
      "anonymous": false,
      "inputs": [
        {
          "indexed": true,
          "internalType": "address",
          "name": "from",
          "type": "address"
        },
        {
          "indexed": false,
          "internalType": "uint256",
          "name": "tokenId",
          "type": "uint256"
        },
        {
          "indexed": false,
          "internalType": "string",
          "name": "tokenTier",
          "type": "string"
        }
      ],
      "name": "RevealRequested",
      "type": "event"
    },
    {
      "anonymous": false,
      "inputs": [
        {
          "indexed": true,
          "internalType": "address",
          "name": "from",
          "type": "address"
        },
        {
          "indexed": true,
          "internalType": "address",
          "name": "to",
          "type": "address"
        },
        {
          "indexed": true,
          "internalType": "uint256",
          "name": "tokenId",
          "type": "uint256"
        }
      ],
      "name": "Transfer",
      "type": "event"
    },
    {
      "anonymous": false,
      "inputs": [
        {
          "indexed": false,
          "internalType": "address",
          "name": "account",
          "type": "address"
        }
      ],
      "name": "Unpaused",
      "type": "event"
    },
    {
      "inputs": [
        {
          "internalType": "address",
          "name": "_toAdd",
          "type": "address"
        }
      ],
      "name": "addAuthorized",
      "outputs": [],
      "stateMutability": "nonpayable",
      "type": "function"
    },
    {
      "inputs": [
        {
          "internalType": "address",
          "name": "to",
          "type": "address"
        },
        {
          "internalType": "uint256",
          "name": "tokenId",
          "type": "uint256"
        }
      ],
      "name": "approve",
      "outputs": [],
      "stateMutability": "nonpayable",
      "type": "function"
    },
    {
      "inputs": [
        {
          "internalType": "address",
          "name": "",
          "type": "address"
        }
      ],
      "name": "authorized",
      "outputs": [
        {
          "internalType": "bool",
          "name": "",
          "type": "bool"
        }
      ],
      "stateMutability": "view",
      "type": "function",
      "constant": true
    },
    {
      "inputs": [
        {
          "internalType": "address",
          "name": "owner",
          "type": "address"
        }
      ],
      "name": "balanceOf",
      "outputs": [
        {
          "internalType": "uint256",
          "name": "",
          "type": "uint256"
        }
      ],
      "stateMutability": "view",
      "type": "function",
      "constant": true
    },
    {
      "inputs": [
        {
          "internalType": "uint256",
          "name": "tokenId",
          "type": "uint256"
        }
      ],
      "name": "getApproved",
      "outputs": [
        {
          "internalType": "address",
          "name": "",
          "type": "address"
        }
      ],
      "stateMutability": "view",
      "type": "function",
      "constant": true
    },
    {
      "inputs": [
        {
          "internalType": "address",
          "name": "owner",
          "type": "address"
        },
        {
          "internalType": "address",
          "name": "operator",
          "type": "address"
        }
      ],
      "name": "isApprovedForAll",
      "outputs": [
        {
          "internalType": "bool",
          "name": "",
          "type": "bool"
        }
      ],
      "stateMutability": "view",
      "type": "function",
      "constant": true
    },
    {
      "inputs": [],
      "name": "name",
      "outputs": [
        {
          "internalType": "string",
          "name": "",
          "type": "string"
        }
      ],
      "stateMutability": "view",
      "type": "function",
      "constant": true
    },
    {
      "inputs": [],
      "name": "owner",
      "outputs": [
        {
          "internalType": "address",
          "name": "",
          "type": "address"
        }
      ],
      "stateMutability": "view",
      "type": "function",
      "constant": true
    },
    {
      "inputs": [
        {
          "internalType": "uint256",
          "name": "tokenId",
          "type": "uint256"
        }
      ],
      "name": "ownerOf",
      "outputs": [
        {
          "internalType": "address",
          "name": "",
          "type": "address"
        }
      ],
      "stateMutability": "view",
      "type": "function",
      "constant": true
    },
    {
      "inputs": [],
      "name": "paused",
      "outputs": [
        {
          "internalType": "bool",
          "name": "",
          "type": "bool"
        }
      ],
      "stateMutability": "view",
      "type": "function",
      "constant": true
    },
    {
      "inputs": [],
      "name": "paymentCurrency",
      "outputs": [
        {
          "internalType": "contract ERC20",
          "name": "",
          "type": "address"
        }
      ],
      "stateMutability": "view",
      "type": "function",
      "constant": true
    },
    {
      "inputs": [
        {
          "internalType": "address",
          "name": "_toRemove",
          "type": "address"
        }
      ],
      "name": "removeAuthorized",
      "outputs": [],
      "stateMutability": "nonpayable",
      "type": "function"
    },
    {
      "inputs": [],
      "name": "renounceOwnership",
      "outputs": [],
      "stateMutability": "nonpayable",
      "type": "function"
    },
    {
      "inputs": [
        {
          "internalType": "address",
          "name": "from",
          "type": "address"
        },
        {
          "internalType": "address",
          "name": "to",
          "type": "address"
        },
        {
          "internalType": "uint256",
          "name": "tokenId",
          "type": "uint256"
        }
      ],
      "name": "safeTransferFrom",
      "outputs": [],
      "stateMutability": "nonpayable",
      "type": "function"
    },
    {
      "inputs": [
        {
          "internalType": "address",
          "name": "from",
          "type": "address"
        },
        {
          "internalType": "address",
          "name": "to",
          "type": "address"
        },
        {
          "internalType": "uint256",
          "name": "tokenId",
          "type": "uint256"
        },
        {
          "internalType": "bytes",
          "name": "_data",
          "type": "bytes"
        }
      ],
      "name": "safeTransferFrom",
      "outputs": [],
      "stateMutability": "nonpayable",
      "type": "function"
    },
    {
      "inputs": [
        {
          "internalType": "address",
          "name": "operator",
          "type": "address"
        },
        {
          "internalType": "bool",
          "name": "approved",
          "type": "bool"
        }
      ],
      "name": "setApprovalForAll",
      "outputs": [],
      "stateMutability": "nonpayable",
      "type": "function"
    },
    {
      "inputs": [],
      "name": "symbol",
      "outputs": [
        {
          "internalType": "string",
          "name": "",
          "type": "string"
        }
      ],
      "stateMutability": "view",
      "type": "function",
      "constant": true
    },
    {
      "inputs": [
        {
          "internalType": "uint256",
          "name": "index",
          "type": "uint256"
        }
      ],
      "name": "tokenByIndex",
      "outputs": [
        {
          "internalType": "uint256",
          "name": "",
          "type": "uint256"
        }
      ],
      "stateMutability": "view",
      "type": "function",
      "constant": true
    },
    {
      "inputs": [
        {
          "internalType": "address",
          "name": "owner",
          "type": "address"
        },
        {
          "internalType": "uint256",
          "name": "index",
          "type": "uint256"
        }
      ],
      "name": "tokenOfOwnerByIndex",
      "outputs": [
        {
          "internalType": "uint256",
          "name": "",
          "type": "uint256"
        }
      ],
      "stateMutability": "view",
      "type": "function",
      "constant": true
    },
    {
      "inputs": [],
      "name": "totalSupply",
      "outputs": [
        {
          "internalType": "uint256",
          "name": "",
          "type": "uint256"
        }
      ],
      "stateMutability": "view",
      "type": "function",
      "constant": true
    },
    {
      "inputs": [
        {
          "internalType": "address",
          "name": "from",
          "type": "address"
        },
        {
          "internalType": "address",
          "name": "to",
          "type": "address"
        },
        {
          "internalType": "uint256",
          "name": "tokenId",
          "type": "uint256"
        }
      ],
      "name": "transferFrom",
      "outputs": [],
      "stateMutability": "nonpayable",
      "type": "function"
    },
    {
      "inputs": [
        {
          "internalType": "address",
          "name": "newOwner",
          "type": "address"
        }
      ],
      "name": "transferOwnership",
      "outputs": [],
      "stateMutability": "nonpayable",
      "type": "function"
    },
    {
      "inputs": [],
      "name": "withdraw",
      "outputs": [],
      "stateMutability": "nonpayable",
      "type": "function"
    },
    {
      "inputs": [
        {
          "internalType": "address",
          "name": "to",
          "type": "address"
        }
      ],
      "name": "withdraw",
      "outputs": [],
      "stateMutability": "nonpayable",
      "type": "function"
    },
    {
      "inputs": [
        {
          "internalType": "address",
          "name": "token",
          "type": "address"
        },
        {
          "internalType": "address",
          "name": "to",
          "type": "address"
        }
      ],
      "name": "withdrawToken",
      "outputs": [],
      "stateMutability": "nonpayable",
      "type": "function"
    },
    {
      "inputs": [
        {
          "internalType": "address",
          "name": "token",
          "type": "address"
        }
      ],
      "name": "withdrawToken",
      "outputs": [],
      "stateMutability": "nonpayable",
      "type": "function"
    },
    {
      "inputs": [],
      "name": "maxSupply",
      "outputs": [
        {
          "internalType": "uint256",
          "name": "",
          "type": "uint256"
        }
      ],
      "stateMutability": "view",
      "type": "function",
      "constant": true
    },
    {
      "inputs": [],
      "name": "maxMintAmount",
      "outputs": [
        {
          "internalType": "uint256",
          "name": "",
          "type": "uint256"
        }
      ],
      "stateMutability": "view",
      "type": "function",
      "constant": true
    },
    {
      "inputs": [],
      "name": "pause",
      "outputs": [],
      "stateMutability": "nonpayable",
      "type": "function"
    },
    {
      "inputs": [],
      "name": "unpause",
      "outputs": [],
      "stateMutability": "nonpayable",
      "type": "function"
    },
    {
      "inputs": [
        {
          "internalType": "string",
          "name": "rarity_",
          "type": "string"
        }
      ],
      "name": "mint",
      "outputs": [],
      "stateMutability": "nonpayable",
      "type": "function"
    },
    {
      "inputs": [
        {
          "internalType": "string",
          "name": "rarity_",
          "type": "string"
        }
      ],
      "name": "mintWhitelist",
      "outputs": [],
      "stateMutability": "nonpayable",
      "type": "function"
    },
    {
      "inputs": [
        {
          "internalType": "address",
          "name": "to_",
          "type": "address"
        },
        {
          "internalType": "string",
          "name": "rarity_",
          "type": "string"
        }
      ],
      "name": "mintOwner",
      "outputs": [],
      "stateMutability": "nonpayable",
      "type": "function"
    },
    {
      "inputs": [
        {
          "internalType": "uint256",
          "name": "tokenId",
          "type": "uint256"
        }
      ],
      "name": "tokenURI",
      "outputs": [
        {
          "internalType": "string",
          "name": "",
          "type": "string"
        }
      ],
      "stateMutability": "view",
      "type": "function",
      "constant": true
    },
    {
      "inputs": [
        {
          "internalType": "uint256",
          "name": "tokenId",
          "type": "uint256"
        }
      ],
      "name": "tokenTierById",
      "outputs": [
        {
          "internalType": "string",
          "name": "",
          "type": "string"
        }
      ],
      "stateMutability": "view",
      "type": "function",
      "constant": true
    },
    {
      "inputs": [],
      "name": "transfersPaused",
      "outputs": [
        {
          "internalType": "bool",
          "name": "",
          "type": "bool"
        }
      ],
      "stateMutability": "view",
      "type": "function",
      "constant": true
    },
    {
      "inputs": [
        {
          "internalType": "bool",
          "name": "transfersPaused_",
          "type": "bool"
        }
      ],
      "name": "setTransfersPaused",
      "outputs": [],
      "stateMutability": "nonpayable",
      "type": "function"
    },
    {
      "inputs": [
        {
          "internalType": "bytes4",
          "name": "interfaceId",
          "type": "bytes4"
        }
      ],
      "name": "supportsInterface",
      "outputs": [
        {
          "internalType": "bool",
          "name": "",
          "type": "bool"
        }
      ],
      "stateMutability": "view",
      "type": "function",
      "constant": true
    },
    {
      "inputs": [
        {
          "internalType": "uint256",
          "name": "maxSupply_",
          "type": "uint256"
        }
      ],
      "name": "setMaxSupply",
      "outputs": [],
      "stateMutability": "nonpayable",
      "type": "function"
    },
    {
      "inputs": [
        {
          "internalType": "uint256",
          "name": "maxMintAmount_",
          "type": "uint256"
        }
      ],
      "name": "setMaxMintAmount",
      "outputs": [],
      "stateMutability": "nonpayable",
      "type": "function"
    },
    {
      "inputs": [
        {
          "internalType": "string",
          "name": "baseURI",
          "type": "string"
        }
      ],
      "name": "setHiddenURI",
      "outputs": [],
      "stateMutability": "nonpayable",
      "type": "function"
    },
    {
      "inputs": [
        {
          "internalType": "string",
          "name": "baseURI",
          "type": "string"
        },
        {
          "internalType": "uint256",
          "name": "tokenId",
          "type": "uint256"
        }
      ],
      "name": "setRevealedURI",
      "outputs": [],
      "stateMutability": "nonpayable",
      "type": "function"
    },
    {
      "inputs": [
        {
          "internalType": "uint256",
          "name": "tokenId",
          "type": "uint256"
        }
      ],
      "name": "reveal",
      "outputs": [],
      "stateMutability": "nonpayable",
      "type": "function"
    },
    {
      "inputs": [
        {
          "internalType": "address[]",
          "name": "addrs",
          "type": "address[]"
        }
      ],
      "name": "registerWhitelist",
      "outputs": [],
      "stateMutability": "nonpayable",
      "type": "function"
    },
    {
      "inputs": [],
      "name": "whitelistSaleTime",
      "outputs": [
        {
          "internalType": "uint256",
          "name": "",
          "type": "uint256"
        }
      ],
      "stateMutability": "view",
      "type": "function",
      "constant": true
    },
    {
      "inputs": [
        {
          "internalType": "uint256",
          "name": "whitelistSaleTime_",
          "type": "uint256"
        }
      ],
      "name": "setWhitelistSaleTime",
      "outputs": [],
      "stateMutability": "nonpayable",
      "type": "function"
    },
    {
      "inputs": [],
      "name": "publicSaleTime",
      "outputs": [
        {
          "internalType": "uint256",
          "name": "",
          "type": "uint256"
        }
      ],
      "stateMutability": "view",
      "type": "function",
      "constant": true
    },
    {
      "inputs": [
        {
          "internalType": "uint256",
          "name": "publicSaleTime_",
          "type": "uint256"
        }
      ],
      "name": "setPublicSaleTime",
      "outputs": [],
      "stateMutability": "nonpayable",
      "type": "function"
    },
    {
      "inputs": [],
      "name": "unlimitedSaleTime",
      "outputs": [
        {
          "internalType": "uint256",
          "name": "",
          "type": "uint256"
        }
      ],
      "stateMutability": "view",
      "type": "function",
      "constant": true
    },
    {
      "inputs": [
        {
          "internalType": "uint256",
          "name": "unlimitedSaleTime_",
          "type": "uint256"
        }
      ],
      "name": "setunlimitedSaleTime",
      "outputs": [],
      "stateMutability": "nonpayable",
      "type": "function"
    },
    {
      "inputs": [],
      "name": "revealTime",
      "outputs": [
        {
          "internalType": "uint256",
          "name": "",
          "type": "uint256"
        }
      ],
      "stateMutability": "view",
      "type": "function",
      "constant": true
    },
    {
      "inputs": [
        {
          "internalType": "uint256",
          "name": "revealTime_",
          "type": "uint256"
        }
      ],
      "name": "setRevealTime",
      "outputs": [],
      "stateMutability": "nonpayable",
      "type": "function"
    }
  ],
  "bytecode": "0x61014060405261070860805261067260a0526105dc60c05261046560e0526103846101005261020d61012052601d80546001600160601b0319166b020d0384046505dc067207081790553480156200005657600080fd5b5060405162003d1238038062003d128339810160408190526200007991620002b7565b604080518082018252600e81526d141b185b995d121bdc9cd953919560921b60208083019182528351808501909452600a845269141213d494d14813919560b21b908401528151919291620000d191600091620001e5565b508051620000e7906001906020840190620001e5565b5050600a805460ff1916905550620000ff3362000182565b6001600b55600d80546001600160a01b0319166001600160a01b038a161790556016879055601786905560188590556019849055601a83905581516200014d906015906020850190620001e5565b50601c805460ff191682151517905562000174600e620001dc602090811b620017ef17901c565b505050505050505062000435565b600a80546001600160a01b03838116610100818102610100600160a81b031985161790945560405193909204169182907f8be0079c531659141344cd1fd0a4f28419497f9722a3daafe3b4186f6b6457e090600090a35050565b80546001019055565b828054620001f390620003f9565b90600052602060002090601f01602090048101928262000217576000855562000262565b82601f106200023257805160ff191683800117855562000262565b8280016001018555821562000262579182015b828111156200026257825182559160200191906001019062000245565b506200027092915062000274565b5090565b5b8082111562000270576000815560010162000275565b634e487b7160e01b600052604160045260246000fd5b80518015158114620002b257600080fd5b919050565b600080600080600080600080610100898b031215620002d557600080fd5b88516001600160a01b0381168114620002ed57600080fd5b809850506020808a0151975060408a0151965060608a0151955060808a0151945060a08a0151935060c08a015160018060401b03808211156200032f57600080fd5b818c0191508c601f8301126200034457600080fd5b8151818111156200035957620003596200028b565b604051601f8201601f19908116603f011681019083821181831017156200038457620003846200028b565b816040528281528f868487010111156200039d57600080fd5b600093505b82841015620003c15784840186015181850187015292850192620003a2565b82841115620003d35760008684830101525b809750505050505050620003ea60e08a01620002a1565b90509295985092959890939650565b600181811c908216806200040e57607f821691505b6020821081036200042f57634e487b7160e01b600052602260045260246000fd5b50919050565b6138cd80620004456000396000f3fe608060405234801561001057600080fd5b506004361061025c5760003560e01c806301ffc9a71461026157806306fdde0314610289578063081812fc1461029e578063088a4ed0146102be578063095ea7b3146102d35780630f49fe93146102e657806311b7e5e7146102f957806318160ddd1461030c5780632344be0a1461031e578063239c70ae1461032657806323b872dd1461032e5780632ecea7b7146103415780632f745c59146103495780633aeac4e11461035c5780633ccfd60b1461036f5780633d15cc6d146103775780633f4ba83a1461038a57806342842e0e1461039257806344e46dff146103a55780634563f30a146103b8578063485d7d94146103c35780634f6ccce7146103d657806351cff8d9146103e95780635c975abb146103fc5780636352211e146104075780636f8b44b01461041a5780636fe9cde31461042d57806370a0823114610440578063715018a61461045357806382562d0b1461045b5780638456cb5914610463578063894760691461046b5780638da5cb5b1461047e57806395d89b41146104865780639a9fb5a61461048e578063a22cb465146104a1578063afdea6c2146104b4578063b88d4fde146104c7578063b9181611146104da578063ba829d71146104fd578063bbaac02f14610505578063c1e2850714610518578063c2c027701461052b578063c2ca0ac51461053e578063c83c71e014610551578063c87b56dd14610564578063cf1c316a14610577578063d5abeb011461058a578063d85d3d2714610592578063e985e9c5146105a5578063f2fde38b146105b8578063f9b8c3bd146105cb575b600080fd5b61027461026f366004612dc7565b6105de565b60405190151581526020015b60405180910390f35b6102916105fe565b6040516102809190612e38565b6102b16102ac366004612e4b565b610690565b6040516102809190612e64565b6102d16102cc366004612e4b565b61071d565b005b6102d16102e1366004612e8f565b610751565b6102d16102f4366004612f76565b610861565b6102d1610307366004612e4b565b610a39565b6008545b604051908152602001610280565b601954610310565b601754610310565b6102d161033c366004612faa565b610a6d565b601854610310565b610310610357366004612e8f565b610a9e565b6102d161036a366004612fe6565b610b34565b6102d1610b97565b600d546102b1906001600160a01b031681565b6102d1610bd3565b6102d16103a0366004612faa565b610c0a565b6102d16103b3366004613027565b610c25565b601c5460ff16610274565b6102d16103d1366004613044565b610c67565b6103106103e4366004612e4b565b610cf2565b6102d16103f7366004613044565b610d85565b600a5460ff16610274565b6102b1610415366004612e4b565b610dc2565b6102d1610428366004612e4b565b610e39565b6102d161043b36600461305f565b610e6d565b61031061044e366004613044565b610ec2565b6102d1610f49565b601a54610310565b6102d1610f82565b6102d1610479366004613044565b610fb9565b6102b1611018565b61029161102c565b6102d161049c366004612e4b565b61103b565b6102d16104af3660046130a3565b61106f565b6102d16104c2366004612e4b565b61107a565b6102d16104d53660046130da565b6110ae565b6102746104e8366004613044565b600c6020526000908152604090205460ff1681565b601b54610310565b6102d1610513366004612f76565b6110e6565b6102d1610526366004612e4b565b611128565b6102d1610539366004613155565b61115c565b6102d161054c366004612e4b565b6111f3565b61029161055f366004612e4b565b6113b9565b610291610572366004612e4b565b61147d565b6102d1610585366004613044565b611516565b601654610310565b6102d16105a0366004612f76565b61158f565b6102746105b3366004612fe6565b6116b5565b6102d16105c6366004613044565b6116e3565b6102d16105d9366004613201565b611780565b60006105e9826117f8565b806105f857506105f882611848565b92915050565b60606000805461060d9061324e565b80601f01602080910402602001604051908101604052809291908181526020018280546106399061324e565b80156106865780601f1061065b57610100808354040283529160200191610686565b820191906000526020600020905b81548152906001019060200180831161066957829003601f168201915b5050505050905090565b600061069b8261186d565b6107015760405162461bcd60e51b815260206004820152602c60248201527f4552433732313a20617070726f76656420717565727920666f72206e6f6e657860448201526b34b9ba32b73a103a37b5b2b760a11b60648201526084015b60405180910390fd5b506000908152600460205260409020546001600160a01b031690565b33610726611018565b6001600160a01b03161461074c5760405162461bcd60e51b81526004016106f890613288565b601755565b600061075c82610dc2565b9050806001600160a01b0316836001600160a01b0316036107c95760405162461bcd60e51b815260206004820152602160248201527f4552433732313a20617070726f76616c20746f2063757272656e74206f776e656044820152603960f91b60648201526084016106f8565b336001600160a01b03821614806107e557506107e581336116b5565b6108525760405162461bcd60e51b815260206004820152603860248201527f4552433732313a20617070726f76652063616c6c6572206973206e6f74206f776044820152771b995c881b9bdc88185c1c1c9bdd995908199bdc88185b1b60421b60648201526084016106f8565b61085c838361188a565b505050565b600a5460ff16156108845760405162461bcd60e51b81526004016106f8906132bd565b6002600b54036108a65760405162461bcd60e51b81526004016106f8906132e7565b6002600b556108b4816118f8565b336000908152601f602052604090205460ff166109225760405162461bcd60e51b815260206004820152602660248201527f506c616e6574486f7273654e46543a2073656e646572206e6f742077686974656044820152651b1a5cdd195960d21b60648201526084016106f8565b601a544210156109615760175461093833610ec2565b610943906001613334565b11156109615760405162461bcd60e51b81526004016106f89061334c565b601654600854610972906001613334565b11156109905760405162461bcd60e51b81526004016106f890613392565b6018544210156109f85760405162461bcd60e51b815260206004820152602d60248201527f506c616e6574486f7273654e46543a2077686974656c6973742073616c65206860448201526c185cdb89dd081cdd185c9d1959609a1b60648201526084016106f8565b6000610a03600e5490565b6000818152602080805260409091208451929350610a25929091850190612d18565b50610a303383611a2d565b50506001600b55565b33610a42611018565b6001600160a01b031614610a685760405162461bcd60e51b81526004016106f890613288565b601955565b610a7733826120c5565b610a935760405162461bcd60e51b81526004016106f8906133d4565b61085c83838361218f565b6000610aa983610ec2565b8210610b0b5760405162461bcd60e51b815260206004820152602b60248201527f455243373231456e756d657261626c653a206f776e657220696e646578206f7560448201526a74206f6620626f756e647360a81b60648201526084016106f8565b506001600160a01b03919091166000908152600660209081526040808320938352929052205490565b33610b3d611018565b6001600160a01b031614610b635760405162461bcd60e51b81526004016106f890613288565b6001600160a01b038216610b895760405162461bcd60e51b81526004016106f890613425565b610b938282612324565b5050565b33610ba0611018565b6001600160a01b031614610bc65760405162461bcd60e51b81526004016106f890613288565b610bd1600033612324565b565b33610bdc611018565b6001600160a01b031614610c025760405162461bcd60e51b81526004016106f890613288565b610bd1612557565b61085c838383604051806020016040528060008152506110ae565b33610c2e611018565b6001600160a01b031614610c545760405162461bcd60e51b81526004016106f890613288565b601c805460ff1916911515919091179055565b33610c70611018565b6001600160a01b031614610c965760405162461bcd60e51b81526004016106f890613288565b6001600160a01b038116610cbc5760405162461bcd60e51b81526004016106f890613475565b336001600160a01b03821603610cd157600080fd5b6001600160a01b03166000908152600c60205260409020805460ff19169055565b6000610cfd60085490565b8210610d605760405162461bcd60e51b815260206004820152602c60248201527f455243373231456e756d657261626c653a20676c6f62616c20696e646578206f60448201526b7574206f6620626f756e647360a01b60648201526084016106f8565b60088281548110610d7357610d736134c4565b90600052602060002001549050919050565b33610d8e611018565b6001600160a01b031614610db45760405162461bcd60e51b81526004016106f890613288565b610dbf600082612324565b50565b6000818152600260205260408120546001600160a01b0316806105f85760405162461bcd60e51b815260206004820152602960248201527f4552433732313a206f776e657220717565727920666f72206e6f6e657869737460448201526832b73a103a37b5b2b760b91b60648201526084016106f8565b33610e42611018565b6001600160a01b031614610e685760405162461bcd60e51b81526004016106f890613288565b601655565b336000908152600c602052604090205460ff1680610e9a575033610e8f611018565b6001600160a01b0316145b610ea357600080fd5b6000818152602160209081526040909120835161085c92850190612d18565b60006001600160a01b038216610f2d5760405162461bcd60e51b815260206004820152602a60248201527f4552433732313a2062616c616e636520717565727920666f7220746865207a65604482015269726f206164647265737360b01b60648201526084016106f8565b506001600160a01b031660009081526003602052604090205490565b33610f52611018565b6001600160a01b031614610f785760405162461bcd60e51b81526004016106f890613288565b610bd160006125e4565b33610f8b611018565b6001600160a01b031614610fb15760405162461bcd60e51b81526004016106f890613288565b610bd161263e565b33610fc2611018565b6001600160a01b031614610fe85760405162461bcd60e51b81526004016106f890613288565b6001600160a01b03811661100e5760405162461bcd60e51b81526004016106f890613425565b610dbf8133612324565b600a5461010090046001600160a01b031690565b60606001805461060d9061324e565b33611044611018565b6001600160a01b03161461106a5760405162461bcd60e51b81526004016106f890613288565b601a55565b610b93338383612696565b33611083611018565b6001600160a01b0316146110a95760405162461bcd60e51b81526004016106f890613288565b601855565b6110b833836120c5565b6110d45760405162461bcd60e51b81526004016106f8906133d4565b6110e084848484612760565b50505050565b336110ef611018565b6001600160a01b0316146111155760405162461bcd60e51b81526004016106f890613288565b8051610b93906015906020840190612d18565b33611131611018565b6001600160a01b0316146111575760405162461bcd60e51b81526004016106f890613288565b601b55565b33611165611018565b6001600160a01b03161461118b5760405162461bcd60e51b81526004016106f890613288565b60005b8151811015610b93576001601f60008484815181106111af576111af6134c4565b6020908102919091018101516001600160a01b03168252810191909152604001600020805460ff1916911515919091179055806111eb816134da565b91505061118e565b600a5460ff16156112165760405162461bcd60e51b81526004016106f8906132bd565b6000818152601e602052604090205460ff16156112845760405162461bcd60e51b815260206004820152602660248201527f506c616e6574486f7273654e46543a20746f6b656e20616c72656164792072656044820152651d99585b195960d21b60648201526084016106f8565b3361128e82610dc2565b6001600160a01b0316146112f55760405162461bcd60e51b815260206004820152602860248201527f506c616e6574486f7273654e46543a206f6e6c79204e4654206f776e657220636044820152670c2dc40eadcc4def60c31b60648201526084016106f8565b601b5442101561135a5760405162461bcd60e51b815260206004820152602a60248201527f506c616e6574486f7273654e46543a20626f78206f70656e696e67206861736e60448201526909dd081cdd185c9d195960b21b60648201526084016106f8565b6000818152601e60209081526040808320805460ff1916600117905590805290819020905133917f85481e0117479c80913dbc94b962f3eff582b056fd064b657e96a9fa3e3ea922916113ae9185916134f3565b60405180910390a250565b60606113c48261186d565b6113e05760405162461bcd60e51b81526004016106f890613580565b6000828152602080526040902080546113f89061324e565b80601f01602080910402602001604051908101604052809291908181526020018280546114249061324e565b80156114715780601f1061144657610100808354040283529160200191611471565b820191906000526020600020905b81548152906001019060200180831161145457829003601f168201915b50505050509050919050565b60606114888261186d565b6114a45760405162461bcd60e51b81526004016106f890613580565b6000828152601e602052604090205460ff16156114f05760008281526021602090815260409182902091516114da92910161363e565b6040516020818303038152906040529050919050565b6000828152602080805260409182902091516114da9260159290910161364a565b919050565b3361151f611018565b6001600160a01b0316146115455760405162461bcd60e51b81526004016106f890613288565b6001600160a01b03811661156b5760405162461bcd60e51b81526004016106f890613475565b6001600160a01b03166000908152600c60205260409020805460ff19166001179055565b600a5460ff16156115b25760405162461bcd60e51b81526004016106f8906132bd565b6002600b54036115d45760405162461bcd60e51b81526004016106f8906132e7565b6002600b556115e2816118f8565b601a54421015611621576017546115f833610ec2565b611603906001613334565b11156116215760405162461bcd60e51b81526004016106f89061334c565b601654600854611632906001613334565b11156116505760405162461bcd60e51b81526004016106f890613392565b6019544210156109f85760405162461bcd60e51b815260206004820152602a60248201527f506c616e6574486f7273654e46543a207075626c69632073616c65206861736e60448201526909dd081cdd185c9d195960b21b60648201526084016106f8565b6001600160a01b03918216600090815260056020908152604080832093909416825291909152205460ff1690565b336116ec611018565b6001600160a01b0316146117125760405162461bcd60e51b81526004016106f890613288565b6001600160a01b0381166117775760405162461bcd60e51b815260206004820152602660248201527f4f776e61626c653a206e6577206f776e657220697320746865207a65726f206160448201526564647265737360d01b60648201526084016106f8565b610dbf816125e4565b33611789611018565b6001600160a01b0316146117af5760405162461bcd60e51b81526004016106f890613288565b6117b8816118f8565b60006117c3600e5490565b60008181526020808052604090912084519293506117e5929091850190612d18565b5061085c83612793565b80546001019055565b60006001600160e01b031982166380ac58cd60e01b148061182957506001600160e01b03198216635b5e139f60e01b145b806105f857506301ffc9a760e01b6001600160e01b03198316146105f8565b60006001600160e01b0319821663780e9d6360e01b14806105f857506105f8826117f8565b6000908152600260205260409020546001600160a01b0316151590565b600081815260046020526040902080546001600160a01b0319166001600160a01b03841690811790915581906118bf82610dc2565b6001600160a01b03167f8c5be1e5ebec7d5bd14f71427d1e84f3dd0314c0f7b2291e5b200ac8c7c3b92560405160405180910390a45050565b805160208201207f3955032f1b4fd3485213d1c8a0e4ced5c0b5d4e9ffa466e04ca90c624d38a25214806119515750805160208201207f2cf735e2c7740b1996c475c19261a0b7dc86863c4718b4dfa4b90956a5ece4ff145b806119815750805160208201207f41ffe11b53b3b4b3c7e561e2030cadfb46606e683613c6775c6896bbb9dc3f74145b806119b15750805160208201207f04f4f20a2d65eb0f15d7fb252c9027859568c706ff77f8b4471a76adbed564c4145b806119e15750805160208201207fa76b05647d9b491c5152725088a2716b8cbccbeee61d5e96496d3d90a759ca54145b80611a115750805160208201207f22788cfc2137a65afabbd2a0858d0b06af1af141310b42f9ff8a00bc1eaa7ecf145b610dbf5760405162461bcd60e51b81526004016106f890613675565b600a5460ff1615611a505760405162461bcd60e51b81526004016106f8906132bd565b805160208201207fc6aafcd0e4b02cb7adec2e375f1b312a3f4a2b16005b991fb356f39db2c75dae01611b61576000611a88600f5490565b601d5490915061ffff90811690821610611ab45760405162461bcd60e51b81526004016106f8906136aa565b600d546040516323b872dd60e01b81526001600160a01b03909116906323b872dd90611aeb9086903090624c4b40906004016136ed565b6020604051808303816000875af1158015611b0a573d6000803e3d6000fd5b505050506040513d601f19601f82011682018060405250810190611b2e9190613711565b611b4a5760405162461bcd60e51b81526004016106f89061372e565b611b58600f80546001019055565b61085c83612793565b805160208201207fd308ca1d388bf4e6693b8a3e6d9e5f48237979c3b8e74b205b46f6a95a131b0101611c6f576000611b9960105490565b601d5490915061ffff62010000909104811690821610611bcb5760405162461bcd60e51b81526004016106f8906136aa565b600d546040516323b872dd60e01b81526001600160a01b03909116906323b872dd90611c029086903090627270e0906004016136ed565b6020604051808303816000875af1158015611c21573d6000803e3d6000fd5b505050506040513d601f19601f82011682018060405250810190611c459190613711565b611c615760405162461bcd60e51b81526004016106f89061372e565b611b58601080546001019055565b805160208201207fbe001ee4ac4c4b4c381a9e1dfcf35204b99f9197c9ec3988a39769444623c08c01611d7e576000611ca760115490565b601d5490915061ffff600160201b909104811690821610611cda5760405162461bcd60e51b81526004016106f8906136aa565b600d546040516323b872dd60e01b81526001600160a01b03909116906323b872dd90611d11908690309062b71b00906004016136ed565b6020604051808303816000875af1158015611d30573d6000803e3d6000fd5b505050506040513d601f19601f82011682018060405250810190611d549190613711565b611d705760405162461bcd60e51b81526004016106f89061372e565b611b58601180546001019055565b805160208201207ffb0b0df5d29a14f0ea2804dad36fd87a6a9738f90088074bb8e58952412a9b3c01611e8d576000611db660125490565b601d5490915061ffff600160301b909104811690821610611de95760405162461bcd60e51b81526004016106f8906136aa565b600d546040516323b872dd60e01b81526001600160a01b03909116906323b872dd90611e20908690309062e4e1c0906004016136ed565b6020604051808303816000875af1158015611e3f573d6000803e3d6000fd5b505050506040513d601f19601f82011682018060405250810190611e639190613711565b611e7f5760405162461bcd60e51b81526004016106f89061372e565b611b58601280546001019055565b805160208201207f5894fa9b8264b6e3aead8daf775d8e947343341119e2a169b692c26f58a635ac01611f9d576000611ec560135490565b601d5490915061ffff600160401b909104811690821610611ef85760405162461bcd60e51b81526004016106f8906136aa565b600d546040516323b872dd60e01b81526001600160a01b03909116906323b872dd90611f3090869030906301c9c380906004016136ed565b6020604051808303816000875af1158015611f4f573d6000803e3d6000fd5b505050506040513d601f19601f82011682018060405250810190611f739190613711565b611f8f5760405162461bcd60e51b81526004016106f89061372e565b611b58601380546001019055565b805160208201207fdd877303dec859a505442d5f7a72f4f950e50ebecef4bd060075ff43e1558131016120ad576000611fd560145490565b601d5490915061ffff600160501b9091048116908216106120085760405162461bcd60e51b81526004016106f8906136aa565b600d546040516323b872dd60e01b81526001600160a01b03909116906323b872dd9061204090869030906302faf080906004016136ed565b6020604051808303816000875af115801561205f573d6000803e3d6000fd5b505050506040513d601f19601f820116820180604052508101906120839190613711565b61209f5760405162461bcd60e51b81526004016106f89061372e565b611b58601480546001019055565b60405162461bcd60e51b81526004016106f890613675565b60006120d08261186d565b6121315760405162461bcd60e51b815260206004820152602c60248201527f4552433732313a206f70657261746f7220717565727920666f72206e6f6e657860448201526b34b9ba32b73a103a37b5b2b760a11b60648201526084016106f8565b600061213c83610dc2565b9050806001600160a01b0316846001600160a01b031614806121775750836001600160a01b031661216c84610690565b6001600160a01b0316145b80612187575061218781856116b5565b949350505050565b826001600160a01b03166121a282610dc2565b6001600160a01b0316146122065760405162461bcd60e51b815260206004820152602560248201527f4552433732313a207472616e736665722066726f6d20696e636f72726563742060448201526437bbb732b960d91b60648201526084016106f8565b6001600160a01b0382166122685760405162461bcd60e51b8152602060048201526024808201527f4552433732313a207472616e7366657220746f20746865207a65726f206164646044820152637265737360e01b60648201526084016106f8565b6122738383836127da565b61227e60008261188a565b6001600160a01b03831660009081526003602052604081208054600192906122a7908490613765565b90915550506001600160a01b03821660009081526003602052604081208054600192906122d5908490613334565b909155505060008181526002602052604080822080546001600160a01b0319166001600160a01b03868116918217909255915184939187169160008051602061385883398151915291a4505050565b6001600160a01b0381166123905760405162461bcd60e51b815260206004820152602d60248201527f576974686472617761626c653a2063616e6e6f7420776974686472617720746f60448201526c207a65726f206164647265737360981b60648201526084016106f8565b6001600160a01b038216156124d9576040516370a0823160e01b815282906000906001600160a01b038316906370a08231906123d0903090600401612e64565b602060405180830381865afa1580156123ed573d6000803e3d6000fd5b505050506040513d601f19601f82011682018060405250810190612411919061377c565b90506000811161245f5760405162461bcd60e51b81526020600482015260256024820152600080516020613878833981519152604482015264045524332360dc1b60648201526084016106f8565b60405163a9059cbb60e01b81526001600160a01b0384811660048301526024820183905283169063a9059cbb906044016020604051808303816000875af11580156124ae573d6000803e3d6000fd5b505050506040513d601f19601f820116820180604052508101906124d29190613711565b5050505050565b47806125215760405162461bcd60e51b8152602060048201526023602482015260008051602061387883398151915260448201526208aa8960eb1b60648201526084016106f8565b6040516001600160a01b0383169082156108fc029083906000818181858888f193505050501580156110e0573d6000803e3d6000fd5b600a5460ff166125a05760405162461bcd60e51b815260206004820152601460248201527314185d5cd8589b194e881b9bdd081c185d5cd95960621b60448201526064016106f8565b600a805460ff191690557f5db9ee0a495bf2e6ff9c91a7834c1ba4fdd244a5e8aa4e537bd38aeae4b073aa335b6040516125da9190612e64565b60405180910390a1565b600a80546001600160a01b03838116610100818102610100600160a81b031985161790945560405193909204169182907f8be0079c531659141344cd1fd0a4f28419497f9722a3daafe3b4186f6b6457e090600090a35050565b600a5460ff16156126615760405162461bcd60e51b81526004016106f8906132bd565b600a805460ff191660011790557f62e78cea01bee320cd4e420270b5ea74000d11b0c9f74754ebdbfc544b05a2586125cd3390565b816001600160a01b0316836001600160a01b0316036126f35760405162461bcd60e51b815260206004820152601960248201527822a9219b99189d1030b8383937bb32903a379031b0b63632b960391b60448201526064016106f8565b6001600160a01b03838116600081815260056020908152604080832094871680845294825291829020805460ff191686151590811790915591519182527f17307eab39ab6107e8899845ad3d59bd9653f200f220920489ca2b5937696c31910160405180910390a3505050565b61276b84848461218f565b61277784848484612856565b6110e05760405162461bcd60e51b81526004016106f890613795565b600061279e600e5490565b90506016548111156127c25760405162461bcd60e51b81526004016106f890613392565b6127d0600e80546001019055565b610b938282612957565b601c5460ff1615806127f357506001600160a01b038316155b61284b5760405162461bcd60e51b8152602060048201526024808201527f506c616e6574486f7273654e46543a207472616e7366657273206172652070616044820152631d5cd95960e21b60648201526084016106f8565b61085c838383612971565b60006001600160a01b0384163b1561294c57604051630a85bd0160e11b81526001600160a01b0385169063150b7a029061289a9033908990889088906004016137e7565b6020604051808303816000875af19250505080156128d5575060408051601f3d908101601f191682019092526128d291810190613824565b60015b612932573d808015612903576040519150601f19603f3d011682016040523d82523d6000602084013e612908565b606091505b50805160000361292a5760405162461bcd60e51b81526004016106f890613795565b805181602001fd5b6001600160e01b031916630a85bd0160e11b149050612187565b506001949350505050565b610b93828260405180602001604052806000815250612a29565b6001600160a01b0383166129cc576129c781600880546000838152600960205260408120829055600182018355919091527ff3f7a9fe364faab93b216da50a3214154f22a0a2b415b23a84c8169e8b636ee30155565b6129ef565b816001600160a01b0316836001600160a01b0316146129ef576129ef8382612a5c565b6001600160a01b038216612a065761085c81612af9565b826001600160a01b0316826001600160a01b03161461085c5761085c8282612ba8565b612a338383612bec565b612a406000848484612856565b61085c5760405162461bcd60e51b81526004016106f890613795565b60006001612a6984610ec2565b612a739190613765565b600083815260076020526040902054909150808214612ac6576001600160a01b03841660009081526006602090815260408083208584528252808320548484528184208190558352600790915290208190555b5060009182526007602090815260408084208490556001600160a01b039094168352600681528383209183525290812055565b600854600090612b0b90600190613765565b60008381526009602052604081205460088054939450909284908110612b3357612b336134c4565b906000526020600020015490508060088381548110612b5457612b546134c4565b6000918252602080832090910192909255828152600990915260408082208490558582528120556008805480612b8c57612b8c613841565b6001900381819060005260206000200160009055905550505050565b6000612bb383610ec2565b6001600160a01b039093166000908152600660209081526040808320868452825280832085905593825260079052919091209190915550565b6001600160a01b038216612c425760405162461bcd60e51b815260206004820181905260248201527f4552433732313a206d696e7420746f20746865207a65726f206164647265737360448201526064016106f8565b612c4b8161186d565b15612c975760405162461bcd60e51b815260206004820152601c60248201527b115490cdcc8c4e881d1bdad95b88185b1c9958591e481b5a5b9d195960221b60448201526064016106f8565b612ca3600083836127da565b6001600160a01b0382166000908152600360205260408120805460019290612ccc908490613334565b909155505060008181526002602052604080822080546001600160a01b0319166001600160a01b0386169081179091559051839290600080516020613858833981519152908290a45050565b828054612d249061324e565b90600052602060002090601f016020900481019282612d465760008555612d8c565b82601f10612d5f57805160ff1916838001178555612d8c565b82800160010185558215612d8c579182015b82811115612d8c578251825591602001919060010190612d71565b50612d98929150612d9c565b5090565b5b80821115612d985760008155600101612d9d565b6001600160e01b031981168114610dbf57600080fd5b600060208284031215612dd957600080fd5b8135612de481612db1565b9392505050565b6000815180845260005b81811015612e1157602081850181015186830182015201612df5565b81811115612e23576000602083870101525b50601f01601f19169290920160200192915050565b602081526000612de46020830184612deb565b600060208284031215612e5d57600080fd5b5035919050565b6001600160a01b0391909116815260200190565b80356001600160a01b038116811461151157600080fd5b60008060408385031215612ea257600080fd5b612eab83612e78565b946020939093013593505050565b634e487b7160e01b600052604160045260246000fd5b604051601f8201601f191681016001600160401b0381118282101715612ef757612ef7612eb9565b604052919050565b60006001600160401b03831115612f1857612f18612eb9565b612f2b601f8401601f1916602001612ecf565b9050828152838383011115612f3f57600080fd5b828260208301376000602084830101529392505050565b600082601f830112612f6757600080fd5b612de483833560208501612eff565b600060208284031215612f8857600080fd5b81356001600160401b03811115612f9e57600080fd5b61218784828501612f56565b600080600060608486031215612fbf57600080fd5b612fc884612e78565b9250612fd660208501612e78565b9150604084013590509250925092565b60008060408385031215612ff957600080fd5b61300283612e78565b915061301060208401612e78565b90509250929050565b8015158114610dbf57600080fd5b60006020828403121561303957600080fd5b8135612de481613019565b60006020828403121561305657600080fd5b612de482612e78565b6000806040838503121561307257600080fd5b82356001600160401b0381111561308857600080fd5b61309485828601612f56565b95602094909401359450505050565b600080604083850312156130b657600080fd5b6130bf83612e78565b915060208301356130cf81613019565b809150509250929050565b600080600080608085870312156130f057600080fd5b6130f985612e78565b935061310760208601612e78565b92506040850135915060608501356001600160401b0381111561312957600080fd5b8501601f8101871361313a57600080fd5b61314987823560208401612eff565b91505092959194509250565b6000602080838503121561316857600080fd5b82356001600160401b038082111561317f57600080fd5b818501915085601f83011261319357600080fd5b8135818111156131a5576131a5612eb9565b8060051b91506131b6848301612ecf565b81815291830184019184810190888411156131d057600080fd5b938501935b838510156131f5576131e685612e78565b825293850193908501906131d5565b98975050505050505050565b6000806040838503121561321457600080fd5b61321d83612e78565b915060208301356001600160401b0381111561323857600080fd5b61324485828601612f56565b9150509250929050565b600181811c9082168061326257607f821691505b60208210810361328257634e487b7160e01b600052602260045260246000fd5b50919050565b6020808252818101527f4f776e61626c653a2063616c6c6572206973206e6f7420746865206f776e6572604082015260600190565b60208082526010908201526f14185d5cd8589b194e881c185d5cd95960821b604082015260600190565b6020808252601f908201527f5265656e7472616e637947756172643a207265656e7472616e742063616c6c00604082015260600190565b634e487b7160e01b600052601160045260246000fd5b600082198211156133475761334761331e565b500190565b60208082526026908201527f506c616e6574486f7273654e46543a2065786365656473206d6178206d696e74604082015265081b1a5b5a5d60d21b606082015260800190565b60208082526022908201527f506c616e6574486f7273654e46543a2065786365656473206d617820737570706040820152616c7960f01b606082015260800190565b60208082526031908201527f4552433732313a207472616e736665722063616c6c6572206973206e6f74206f6040820152701ddb995c881b9bdc88185c1c1c9bdd9959607a1b606082015260800190565b60208082526030908201527f576974686472617761626c653a207a65726f2061646472657373206973206e6f60408201526f3a1030b71022a9219918103a37b5b2b760811b606082015260800190565b6020808252602f908201527f417574686f72697a61626c653a206e657720617574686f72697479206973207460408201526e6865207a65726f206164647265737360881b606082015260800190565b634e487b7160e01b600052603260045260246000fd5b6000600182016134ec576134ec61331e565b5060010190565b828152600060206040818401526000845461350d8161324e565b806040870152606060018084166000811461352f576001811461354357613571565b60ff19851689840152608089019550613571565b896000528660002060005b858110156135695781548b820186015290830190880161354e565b8a0184019650505b50939998505050505050505050565b6020808252602f908201527f4552433732314d657461646174613a2055524920717565727920666f72206e6f60408201526e3732bc34b9ba32b73a103a37b5b2b760891b606082015260800190565b600081546135dc8161324e565b600182811680156135f4576001811461360557613634565b60ff19841687528287019450613634565b8560005260208060002060005b8581101561362b5781548a820152908401908201613612565b50505082870194505b5050505092915050565b6000612de482846135cf565b600061365f61365983866135cf565b846135cf565b64173539b7b760d91b8152600501949350505050565b6020808252818101527f506c616e6574486f7273654e46543a20696e76616c696420617267756d656e74604082015260600190565b60208082526023908201527f506c616e6574486f7273654e46543a2054696572204c696d697420526561636860408201526265642160e81b606082015260800190565b6001600160a01b039384168152919092166020820152604081019190915260600190565b60006020828403121561372357600080fd5b8151612de481613019565b6020808252601f908201527f506c616e6574486f7273654e46543a205061796d656e74204661696c65642100604082015260600190565b6000828210156137775761377761331e565b500390565b60006020828403121561378e57600080fd5b5051919050565b60208082526032908201527f4552433732313a207472616e7366657220746f206e6f6e20455243373231526560408201527131b2b4bb32b91034b6b83632b6b2b73a32b960711b606082015260800190565b6001600160a01b038581168252841660208201526040810183905260806060820181905260009061381a90830184612deb565b9695505050505050565b60006020828403121561383657600080fd5b8151612de481612db1565b634e487b7160e01b600052603160045260246000fdfeddf252ad1be2c89b69c2b068fc378daa952ba7f163c4a11628f55a4df523b3ef576974686472617761626c653a2063616e6e6f74207769746864726177203020a2646970667358221220a2ce4754b69dc2ad4bfd8866e30377a425f42b12cb9e4eab5f10a0ab344b089a64736f6c634300080d0033",
  "immutableReferences": {},
  "source": "// SPDX-License-Identifier: MIT\r\n\r\npragma solidity ^0.8.0;\r\n\r\nimport \"@openzeppelin/contracts/token/ERC20/ERC20.sol\";\r\nimport \"@openzeppelin/contracts/token/ERC721/ERC721.sol\";\r\nimport \"@openzeppelin/contracts/token/ERC721/extensions/ERC721Enumerable.sol\";\r\nimport \"@openzeppelin/contracts/security/Pausable.sol\";\r\nimport \"@openzeppelin/contracts/security/ReentrancyGuard.sol\";\r\nimport \"@openzeppelin/contracts/utils/Counters.sol\";\r\nimport \"@openzeppelin/contracts/utils/Strings.sol\";\r\nimport \"./Withdrawable.sol\";\r\nimport \"./Authorizable.sol\";\r\n\r\ncontract PlanetHorseNFT is\r\n  ERC721,\r\n  ERC721Enumerable,\r\n  Pausable,\r\n  Withdrawable,\r\n  ReentrancyGuard,\r\n  Authorizable\r\n{\r\n  using Counters for Counters.Counter;\r\n  using Strings for uint256;\r\n\r\n  event RevealRequested(address indexed from, uint256 tokenId, string tokenTier);\r\n\r\n  ERC20 public paymentCurrency;\r\n\r\n  Counters.Counter private _tokenIdCounter;\r\n  Counters.Counter private _commonSupply;\r\n  Counters.Counter private _rareSupply;\r\n  Counters.Counter private _srareSupply;\r\n  Counters.Counter private _epicSupply;\r\n  Counters.Counter private _legendSupply;\r\n  Counters.Counter private _slegendSupply;\r\n\r\n  string private _hiddenBaseURI;\r\n\r\n  uint256 private _maxSupply;\r\n  uint256 private _maxMintAmount;\r\n\r\n  uint256 private _whitelistSaleTime;\r\n  uint256 private _publicSaleTime;\r\n  uint256 private _unlimitedSaleTime;\r\n  uint256 private _revealTime;\r\n\r\n  bool private _transfersPaused;\r\n\r\n  struct TieredSupply {\r\n    uint16 COMMON_MAX_SUPPLY;\r\n    uint16 RARE_MAX_SUPPLY;\r\n    uint16 SRARE_MAX_SUPPLY;\r\n    uint16 EPIC_MAX_SUPPLY;\r\n    uint16 LEGEND_MAX_SUPPLY;\r\n    uint16 SLEGEND_MAX_SUPPLY;\r\n  }\r\n\r\n  TieredSupply internal _tieredSupply = TieredSupply({\r\n    COMMON_MAX_SUPPLY: 1800,\r\n    RARE_MAX_SUPPLY: 1650,\r\n    SRARE_MAX_SUPPLY: 1500,\r\n    EPIC_MAX_SUPPLY: 1125,\r\n    LEGEND_MAX_SUPPLY: 900,\r\n    SLEGEND_MAX_SUPPLY: 525\r\n  });\r\n\r\n  mapping(uint256 => bool) private _revealed;\r\n  mapping(address => bool) private _whitelist;\r\n  mapping(uint256 => string) private _tokenTiers;\r\n  mapping(uint256 => string) private _revealedTokenURIs;\r\n\r\n\r\n  constructor(\r\n    ERC20 paymentCurrency_,\r\n    uint256 maxSupply_,\r\n    uint256 maxMintAmount_,\r\n    uint256 whitelistSaleTime_,\r\n    uint256 publicSaleTime_,\r\n    uint256 unlimitedSaleTime_,\r\n    string memory hiddenBaseURI_,\r\n    bool transfersPaused_\r\n  )\r\n    ERC721(\"PlanetHorseNFT\", \"PHORSE NFT\")\r\n  { \r\n    paymentCurrency = paymentCurrency_;\r\n    _maxSupply = maxSupply_;\r\n    _maxMintAmount = maxMintAmount_;\r\n    _whitelistSaleTime = whitelistSaleTime_;\r\n    _publicSaleTime = publicSaleTime_;\r\n    _unlimitedSaleTime = unlimitedSaleTime_;\r\n    _hiddenBaseURI = hiddenBaseURI_;\r\n    _transfersPaused = transfersPaused_;\r\n\r\n    _tokenIdCounter.increment();\r\n  }\r\n\r\n  function maxSupply() public view returns (uint256) {\r\n    return _maxSupply;\r\n  }\r\n\r\n  function maxMintAmount() public view returns (uint256) {\r\n    return _maxMintAmount;\r\n  }\r\n\r\n  function pause() public onlyOwner {\r\n    _pause();\r\n  }\r\n\r\n  function unpause() public onlyOwner {\r\n    _unpause();\r\n  }\r\n\r\n  function mint(\r\n    string memory rarity_\r\n    )\r\n     external \r\n     whenNotPaused \r\n     nonReentrant \r\n  {\r\n    _checkRarityBeforeMint(rarity_);\r\n    if (block.timestamp < _unlimitedSaleTime) {\r\n      require(\r\n      balanceOf(msg.sender) + 1 <= _maxMintAmount,\r\n      \"PlanetHorseNFT: exceeds max mint limit\"\r\n    );\r\n    }\r\n    require(\r\n      totalSupply() + 1 <= _maxSupply,\r\n      \"PlanetHorseNFT: exceeds max supply\"\r\n    );\r\n    if (block.timestamp < _publicSaleTime) {\r\n      revert(\"PlanetHorseNFT: public sale hasn't started\");\r\n    }\r\n\r\n      uint256 tokenId = _tokenIdCounter.current();\r\n      _tokenTiers[tokenId] = rarity_;\r\n      _mintByRarity(msg.sender, rarity_);\r\n    \r\n  }\r\n\r\n  function mintWhitelist(\r\n    string memory rarity_\r\n  )\r\n    external\r\n    whenNotPaused\r\n    nonReentrant\r\n  {\r\n    _checkRarityBeforeMint(rarity_);\r\n    require(\r\n      _whitelist[msg.sender],\r\n      \"PlanetHorseNFT: sender not whitelisted\"\r\n    );\r\n    if (block.timestamp < _unlimitedSaleTime) {\r\n      require(\r\n      balanceOf(msg.sender) + 1 <= _maxMintAmount,\r\n      \"PlanetHorseNFT: exceeds max mint limit\"\r\n    );\r\n    }\r\n    require(\r\n      totalSupply() + 1 <= _maxSupply,\r\n      \"PlanetHorseNFT: exceeds max supply\"\r\n    );\r\n    if (block.timestamp < _whitelistSaleTime) {\r\n      revert(\"PlanetHorseNFT: whitelist sale hasn't started\");\r\n    }\r\n    \r\n      uint256 tokenId = _tokenIdCounter.current();\r\n      _tokenTiers[tokenId] = rarity_;\r\n      _mintByRarity(msg.sender, rarity_);\r\n    \r\n  }\r\n\r\n  function mintOwner(address to_, string memory rarity_) external onlyOwner {\r\n      _checkRarityBeforeMint(rarity_);\r\n      uint256 tokenId = _tokenIdCounter.current();\r\n      _tokenTiers[tokenId] = rarity_;\r\n      _safeMint(to_);\r\n  }\r\n\r\n  function _safeMint(address to) internal {\r\n    uint256 tokenId = _tokenIdCounter.current();\r\n    require(tokenId <= _maxSupply, 'PlanetHorseNFT: exceeds max supply');\r\n\r\n    _tokenIdCounter.increment();\r\n    _safeMint(to, tokenId);\r\n  }\r\n\r\n  function _checkRarityBeforeMint(string memory rarity_) internal pure {\r\n        require(\r\n        keccak256(bytes(rarity_)) == keccak256(\"common\") || \r\n        keccak256(bytes(rarity_)) == keccak256(\"rare\") || \r\n        keccak256(bytes(rarity_)) == keccak256(\"srare\") || \r\n        keccak256(bytes(rarity_)) == keccak256(\"epic\") || \r\n        keccak256(bytes(rarity_)) == keccak256(\"legend\") || \r\n        keccak256(bytes(rarity_)) == keccak256(\"slegend\"), \"PlanetHorseNFT: invalid argument\"\r\n        );\r\n  }\r\n\r\n  function _mintByRarity(address minter_, string memory rarity_) internal whenNotPaused {\r\n      if (keccak256(bytes(rarity_)) == keccak256(\"common\")) {\r\n        uint16 tierSupply = uint16(_commonSupply.current());\r\n        require(tierSupply < _tieredSupply.COMMON_MAX_SUPPLY, \"PlanetHorseNFT: Tier Limit Reached!\");\r\n        require(paymentCurrency.transferFrom(minter_, address(this), 5000000), \"PlanetHorseNFT: Payment Failed!\");\r\n        _commonSupply.increment();\r\n        _safeMint(minter_);       \r\n      } else if (keccak256(bytes(rarity_)) == keccak256(\"rare\")) {\r\n        uint16 tierSupply = uint16(_rareSupply.current());\r\n        require(tierSupply < _tieredSupply.RARE_MAX_SUPPLY, \"PlanetHorseNFT: Tier Limit Reached!\");\r\n        require(paymentCurrency.transferFrom(minter_, address(this), 7500000), \"PlanetHorseNFT: Payment Failed!\");\r\n        _rareSupply.increment();\r\n        _safeMint(minter_);\r\n      } else if (keccak256(bytes(rarity_)) == keccak256(\"srare\")) {\r\n        uint16 tierSupply = uint16(_srareSupply.current());\r\n        require(tierSupply < _tieredSupply.SRARE_MAX_SUPPLY, \"PlanetHorseNFT: Tier Limit Reached!\");\r\n        require(paymentCurrency.transferFrom(minter_, address(this), 12000000), \"PlanetHorseNFT: Payment Failed!\");\r\n        _srareSupply.increment();\r\n        _safeMint(minter_);\r\n      } else if (keccak256(bytes(rarity_)) == keccak256(\"epic\")) {\r\n        uint16 tierSupply = uint16(_epicSupply.current());\r\n        require(tierSupply < _tieredSupply.EPIC_MAX_SUPPLY, \"PlanetHorseNFT: Tier Limit Reached!\");\r\n        require(paymentCurrency.transferFrom(minter_, address(this), 15000000), \"PlanetHorseNFT: Payment Failed!\");\r\n        _epicSupply.increment();\r\n        _safeMint(minter_);\r\n      } else if (keccak256(bytes(rarity_)) == keccak256(\"legend\")) {\r\n        uint16 tierSupply = uint16(_legendSupply.current());\r\n        require(tierSupply < _tieredSupply.LEGEND_MAX_SUPPLY, \"PlanetHorseNFT: Tier Limit Reached!\");\r\n        require(paymentCurrency.transferFrom(minter_, address(this), 30000000), \"PlanetHorseNFT: Payment Failed!\");\r\n        _legendSupply.increment();\r\n        _safeMint(minter_);\r\n      } else if (keccak256(bytes(rarity_)) == keccak256(\"slegend\")) {\r\n        uint16 tierSupply = uint16(_slegendSupply.current());\r\n        require(tierSupply < _tieredSupply.SLEGEND_MAX_SUPPLY, \"PlanetHorseNFT: Tier Limit Reached!\");\r\n        require(paymentCurrency.transferFrom(minter_, address(this), 50000000), \"PlanetHorseNFT: Payment Failed!\");\r\n        _slegendSupply.increment();\r\n        _safeMint(minter_);\r\n      } else {\r\n        revert(\"PlanetHorseNFT: invalid argument\");\r\n      }\r\n  }\r\n\r\n  function tokenURI(uint256 tokenId)\r\n    public\r\n    view\r\n    override\r\n    returns (string memory)\r\n  {\r\n    require(\r\n      _exists(tokenId),\r\n      \"ERC721Metadata: URI query for nonexistent token\"\r\n    );\r\n\r\n    if (_revealed[tokenId]) {\r\n      return\r\n        string(\r\n          abi.encodePacked(_revealedTokenURIs[tokenId])\r\n        );\r\n    } else {\r\n      return\r\n        string(\r\n          abi.encodePacked(_hiddenBaseURI, string(_tokenTiers[tokenId]), \".json\")\r\n        );\r\n    }\r\n  }\r\n\r\n  function tokenTierById(uint256 tokenId)\r\n    public\r\n    view\r\n    returns (string memory)\r\n  {\r\n    require(\r\n      _exists(tokenId),\r\n      \"ERC721Metadata: URI query for nonexistent token\"\r\n    );\r\n    return string(_tokenTiers[tokenId]);\r\n  }\r\n\r\n  function transfersPaused() public view returns (bool) {\r\n    return _transfersPaused;\r\n  }\r\n\r\n  function setTransfersPaused(bool transfersPaused_) external onlyOwner {\r\n    _transfersPaused = transfersPaused_;\r\n  }\r\n\r\n  function _beforeTokenTransfer(\r\n    address from,\r\n    address to,\r\n    uint256 tokenId\r\n  ) internal override(ERC721, ERC721Enumerable) {\r\n    require(\r\n      !_transfersPaused || from == address(0),\r\n      'PlanetHorseNFT: transfers are paused'\r\n    );\r\n\r\n    super._beforeTokenTransfer(from, to, tokenId);\r\n  }\r\n\r\n  function supportsInterface(bytes4 interfaceId)\r\n    public\r\n    view\r\n    override(ERC721, ERC721Enumerable)\r\n    returns (bool)\r\n  {\r\n    return\r\n      ERC721.supportsInterface(interfaceId) ||\r\n      ERC721Enumerable.supportsInterface(interfaceId);\r\n  }\r\n\r\n  function setMaxSupply(uint256 maxSupply_) external onlyOwner {\r\n    _maxSupply = maxSupply_;\r\n  }\r\n\r\n  function setMaxMintAmount(uint256 maxMintAmount_) external onlyOwner {\r\n    _maxMintAmount = maxMintAmount_;\r\n  }\r\n\r\n  function setHiddenURI(string memory baseURI)\r\n    external\r\n    onlyOwner\r\n  {\r\n    _hiddenBaseURI = baseURI;\r\n  }\r\n\r\n  function setRevealedURI(string memory baseURI, uint256 tokenId)\r\n    external\r\n    onlyAuthorized\r\n  {\r\n    _revealedTokenURIs[tokenId] = baseURI;\r\n\r\n  }\r\n\r\n  function reveal(uint256 tokenId)\r\n    external\r\n    whenNotPaused\r\n  {\r\n    require(!_revealed[tokenId], \"PlanetHorseNFT: token already revealed\");\r\n    require(ownerOf(tokenId) == msg.sender, \"PlanetHorseNFT: only NFT owner can unbox\");\r\n    if (block.timestamp < _revealTime) {\r\n      revert(\"PlanetHorseNFT: box opening hasn't started\");\r\n    }\r\n     _revealed[tokenId] = true;\r\n     emit RevealRequested(msg.sender, tokenId, _tokenTiers[tokenId]);\r\n  }\r\n\r\n\r\n  function registerWhitelist(address[] memory addrs) external onlyOwner {\r\n        for(uint256 i = 0; i < addrs.length; i++)\r\n            _whitelist[addrs[i]] = true;\r\n    }\r\n\r\n  function whitelistSaleTime() public view returns (uint256) {\r\n    return _whitelistSaleTime;\r\n  }\r\n\r\n  function setWhitelistSaleTime(uint256 whitelistSaleTime_) external onlyOwner {\r\n    _whitelistSaleTime = whitelistSaleTime_;\r\n  }\r\n\r\n  function publicSaleTime() public view returns (uint256) {\r\n    return _publicSaleTime;\r\n  }\r\n\r\n  function setPublicSaleTime(uint256 publicSaleTime_) external onlyOwner {\r\n    _publicSaleTime = publicSaleTime_;\r\n  }\r\n\r\n  function unlimitedSaleTime() public view returns (uint256) {\r\n    return _unlimitedSaleTime;\r\n  }\r\n\r\n  function setunlimitedSaleTime(uint256 unlimitedSaleTime_) external onlyOwner {\r\n    _unlimitedSaleTime = unlimitedSaleTime_;\r\n  }\r\n\r\n    function revealTime() public view returns (uint256) {\r\n    return _revealTime;\r\n  }\r\n\r\n  function setRevealTime(uint256 revealTime_) external onlyOwner {\r\n    _revealTime = revealTime_;\r\n  }\r\n\r\n}",
  "sourcePath": "/home/taurinos/workspace/nft-presale/contracts/PlanetHorseNFT.sol",
  "compiler": {
    "name": "solc",
    "version": "0.8.13+commit.abaa5c0e.Emscripten.clang"
  },
  "schemaVersion": "3.4.6",
  "updatedAt": "2022-04-12T19:01:23.701Z",
  "networkType": "ethereum",
  "devdoc": {
    "kind": "dev",
    "methods": {
      "approve(address,uint256)": {
        "details": "See {IERC721-approve}."
      },
      "balanceOf(address)": {
        "details": "See {IERC721-balanceOf}."
      },
      "getApproved(uint256)": {
        "details": "See {IERC721-getApproved}."
      },
      "isApprovedForAll(address,address)": {
        "details": "See {IERC721-isApprovedForAll}."
      },
      "name()": {
        "details": "See {IERC721Metadata-name}."
      },
      "owner()": {
        "details": "Returns the address of the current owner."
      },
      "ownerOf(uint256)": {
        "details": "See {IERC721-ownerOf}."
      },
      "paused()": {
        "details": "Returns true if the contract is paused, and false otherwise."
      },
      "renounceOwnership()": {
        "details": "Leaves the contract without owner. It will not be possible to call `onlyOwner` functions anymore. Can only be called by the current owner. NOTE: Renouncing ownership will leave the contract without an owner, thereby removing any functionality that is only available to the owner."
      },
      "safeTransferFrom(address,address,uint256)": {
        "details": "See {IERC721-safeTransferFrom}."
      },
      "safeTransferFrom(address,address,uint256,bytes)": {
        "details": "See {IERC721-safeTransferFrom}."
      },
      "setApprovalForAll(address,bool)": {
        "details": "See {IERC721-setApprovalForAll}."
      },
      "symbol()": {
        "details": "See {IERC721Metadata-symbol}."
      },
      "tokenByIndex(uint256)": {
        "details": "See {IERC721Enumerable-tokenByIndex}."
      },
      "tokenOfOwnerByIndex(address,uint256)": {
        "details": "See {IERC721Enumerable-tokenOfOwnerByIndex}."
      },
      "tokenURI(uint256)": {
        "details": "See {IERC721Metadata-tokenURI}."
      },
      "totalSupply()": {
        "details": "See {IERC721Enumerable-totalSupply}."
      },
      "transferFrom(address,address,uint256)": {
        "details": "See {IERC721-transferFrom}."
      },
      "transferOwnership(address)": {
        "details": "Transfers ownership of the contract to a new account (`newOwner`). Can only be called by the current owner."
      }
    },
    "version": 1
  },
  "userdoc": {
    "kind": "user",
    "methods": {},
    "version": 1
  }
}